:020000040000FA
:1000000047EF0AF0848A000000000000849A130081
:10001000848A0000000000000000000000000000D2
:100020000000000000000000849A1300016E000E22
:10003000006E01B021EF00F001A002EC00F024EF0F
:1000400000F008EC00F00000002A0146080E0062F3
:1000500019EF00F01300200E16ED00F0000E16ED63
:1000600000F0000E16ED00F0000E16ED00F013008B
:10007000000E16ED00F0000E16ED00F0000E16ED6D
:1000800000F0000E16ED00F01300000E16ED00F06B
:10009000600E16ED00F0000E16ED00F0000E16EDED
:1000A00000F01300000E16ED00F0000E16ED00F04B
:1000B000200E16ED00F0000E16ED00F01300040EF9
:1000C00016ED00F0040E16ED00F0040E16ED00F033
:1000D000040E16ED00F01300200E16ED00F0200EB9
:1000E00016ED00F0000E16ED00F0000E16ED00F01B
:1000F0001300080E16ED00F01E0E16ED00F0000EB7
:1001000016ED00F0000E16ED00F01300000E16EDD7
:1001100000F0200E16ED00F0200E16ED00F0000E9F
:1001200016ED00F01300200E16ED00F0000E16ED97
:1001300000F0200E16ED00F0000E16ED00F013009A
:10014000050EE8CF02F0FF0EE8CF03F0032EA6EF76
:1001500000F0022EA3EF00F01200010EE8CF04F031
:10016000FF0EE8CF05F0A0EC00F0052EB3EF00F095
:10017000042EB0EF00F0120038EC00F038EC00F084
:1001800038EC00F038EC00F038EC00F038EC00F01F
:1001900038EC00F038EC00F038EC00F038EC00F00F
:1001A00038EC00F038EC00F038EC00F038EC00F0FF
:1001B00038EC00F038EC00F0130086EC00F038EC7E
:1001C00000F038EC00F038EC00F038EC00F038ECDF
:1001D00000F038EC00F038EC00F086EC00F038EC81
:1001E00000F038EC00F038EC00F038EC00F038ECBF
:1001F00000F038EC00F038EC00F0130086EC00F072
:1002000052EC00F038EC00F038EC00F038EC00F084
:1002100038EC00F038EC00F038EC00F086EC00F040
:1002200052EC00F038EC00F038EC00F038EC00F064
:1002300038EC00F038EC00F038EC00F0130086ECFD
:1002400000F052EC00F02BEC00F038EC00F038EC51
:1002500000F038EC00F038EC00F038EC00F086EC00
:1002600000F052EC00F02BEC00F038EC00F038EC31
:1002700000F038EC00F038EC00F038EC00F013003F
:1002800086EC00F052EC00F02BEC00F02BEC00F0D0
:1002900038EC00F038EC00F038EC00F038EC00F00E
:1002A00086EC00F052EC00F02BEC00F02BEC00F0B0
:1002B00038EC00F038EC00F038EC00F038EC00F0EE
:1002C000130086EC00F052EC00F02BEC00F02BEC6D
:1002D00000F02BEC00F038EC00F038EC00F038ECDB
:1002E00000F086EC00F052EC00F02BEC00F02BEC70
:1002F00000F02BEC00F038EC00F038EC00F038ECBB
:1003000000F0130086EC00F052EC00F02BEC00F053
:100310002BEC00F02BEC00F06CEC00F038EC00F073
:1003200038EC00F086EC00F052EC00F02BEC00F022
:100330002BEC00F02BEC00F06CEC00F038EC00F053
:1003400038EC00F0130086EC00F052EC00F02BECDF
:1003500000F02BEC00F02BEC00F06CEC00F079ECF2
:1003600000F038EC00F086EC00F052EC00F02BECE2
:1003700000F02BEC00F02BEC00F06CEC00F079ECD2
:1003800000F038EC00F0130086EC00F052EC00F0C6
:100390002BEC00F02BEC00F02BEC00F06CEC00F000
:1003A00079EC00F045EC00F086EC00F052EC00F047
:1003B0002BEC00F02BEC00F02BEC00F06CEC00F0E0
:1003C00079EC00F045EC00F01300000E0662EBEF54
:1003D00001F0BCEC00F0010E0662F1EF01F0DDEC83
:1003E00000F0020E0662F7EF01F0FEEC00F0030EE3
:1003F0000662FDEF01F01FEC01F0040E066203EF50
:1004000002F040EC01F0050E066209EF02F061EC2B
:1004100001F0060E06620FEF02F082EC01F0070E0B
:10042000066215EF02F0A3EC01F0080E06621BEF66
:1004300002F0C4EC01F01300000E076222EF02F09C
:10044000BCEC00F0010E076228EF02F0DDEC00F0DA
:10045000020E07622EEF02F0FEEC00F0030E0762C0
:1004600034EF02F01FEC01F0040E07623AEF02F0E5
:1004700040EC01F0050E076240EF02F061EC01F084
:10048000060E076246EF02F082EC01F0070E0762EB
:100490004CEF02F0A3EC01F0080E076252EF02F0FD
:1004A000C4EC01F01300000E086259EF02F0BCEC3E
:1004B00000F0010E08625FEF02F0DDEC00F0020ECA
:1004C000086265EF02F0FEEC00F0030E08626BEFCD
:1004D00002F01FEC01F0040E086271EF02F040EC34
:1004E00001F0050E086277EF02F061EC01F0060EF4
:1004F00008627DEF02F082EC01F0070E086283EFE4
:1005000002F0A3EC01F0080E086289EF02F0C4ECDF
:1005100001F01300000E096290EF02F0BCEC00F055
:10052000010E096296EF02F0DDEC00F0020E0962A6
:100530009CEF02F0FEEC00F0030E0962A2EF02F065
:100540001FEC01F0040E0962A8EF02F040EC01F08C
:10055000050E0962AEEF02F061EC01F0060E0962D1
:10056000B4EF02F082EC01F0070E0962BAEF02F07C
:10057000A3EC01F0080E0962C0EF02F0C4EC01F038
:100580001300060E066EE5ED01F0030E076E1CED7E
:1005900002F0080E086E53ED02F0010E096E8AEDAE
:1005A00002F0ADEC00F0070E066EE5ED01F0040E72
:1005B000076E1CED02F0070E086E53ED02F0020EFE
:1005C000096E8AED02F0ADEC00F0080E066EE5ED66
:1005D00001F0050E076E1CED02F0060E086E53EDDD
:1005E00002F0010E096E8AED02F0ADEC00F0060E8D
:1005F000066EE5ED01F0060E076E1CED02F0040E2E
:10060000086E53ED02F0030E096E8AED02F0ADECB8
:1006100000F0040E066EE5ED01F0070E076E1CED0E
:1006200002F0020E086E53ED02F0050E096E8AED1F
:1006300002F0ADEC00F0030E066EE5ED01F0070EE2
:10064000076E1CED02F0010E086E53ED02F0040E71
:10065000096E8AED02F0ADEC00F0040E066EE5EDD9
:1006600001F0070E076E1CED02F0030E086E53ED4D
:1006700002F0020E096E8AED02F0ADEC00F0050EFC
:10068000066EE5ED01F0040E076E1CED02F0060E9D
:10069000086E53ED02F0000E096E8AED02F0ADEC2B
:1006A00000F0060E066EE5ED01F0030E076E1CED80
:1006B00002F0080E086E53ED02F0010E096E8AED8D
:1006C00002F0ADEC00F0ADEC00F0ADEC00F0ADEC04
:1006D00000F0ADEC00F0ADEC00F013000F01000EE7
:1006E0005F6F0F011181608060B074EF03F00F0144
:1006F00064500A6E0F0163500B6E13000F01010E60
:100700005F6F0F011183608060B084EF03F00F0111
:1007100064500A6E0F0163500B6E13000F01020E3E
:100720005F6F0F011185608060B094EF03F00F01DF
:1007300064500A6E0F0163500B6E13000F01030E1D
:100740005F6F0F011187608060B0A4EF03F00F01AD
:1007500064500A6E0F0163500B6E1300000E0A64A2
:10076000BEEF03F0010E0A64C5EF03F0020E0A6447
:10077000CBEF03F0030E0A64D1EF03F00BAED7EF1B
:1007800003F00BBE020CDFEF03F00BAE030C0BBE4D
:10079000040CDFEF03F00BAE050C0BBE060CDFEF15
:1007A00003F00BAE070C0BBE080CDFEF03F00BAC35
:1007B0000BBADEEF03F0000CDFEF03F0010C1300C7
:1007C0000A6A0B6A6EEC03F0AEEC03F0066E0A6A7E
:1007D0000B6A7EEC03F0AEEC03F0076E0A6A0B6A5C
:1007E0008EEC03F0AEEC03F0086E0A6A0B6A9EEC26
:1007F00003F0AEEC03F0096EE5EC01F01CEC02F046
:1008000053EC02F08AEC02F0A0EC00F0130038EC9C
:1008100000F052EC00F052EC00F052EC00F038EC3A
:1008200000F038EC00F038EC00F038EC00F038EC78
:1008300000F052EC00F052EC00F052EC00F038EC1A
:1008400000F038EC00F038EC00F038EC00F038EC58
:1008500000F052EC00F052EC00F052EC00F038ECFA
:1008600000F038EC00F038EC00F038EC00F038EC38
:1008700000F052EC00F05FEC00F05FEC00F052ECA6
:1008800000F038EC00F038EC00F038EC00F052ECFE
:1008900000F05FEC00F05FEC00F05FEC00F05FEC6C
:1008A00000F052EC00F052EC00F038EC00F052ECAA
:1008B00000F05FEC00F05FEC00F05FEC00F05FEC4C
:1008C00000F052EC00F052EC00F052EC00F052EC70
:1008D00000F05FEC00F05FEC00F05FEC00F052EC39
:1008E00000F038EC00F038EC00F038EC00F038ECB8
:1008F00000F052EC00F052EC00F052EC00F052EC40
:1009000000F038EC00F038EC00F038EC00F01200A9
:1009100038EC00F052EC00F052EC00F052EC00F039
:1009200052EC00F052EC00F052EC00F038EC00F029
:1009300052EC00F052EC00F052EC00F052EC00F0FF
:1009400052EC00F052EC00F052EC00F052EC00F0EF
:1009500052EC00F052EC00F052EC00F05FEC00F0D2
:1009600052EC00F052EC00F052EC00F052EC00F0CF
:1009700052EC00F05FEC00F05FEC00F05FEC00F098
:100980005FEC00F05FEC00F052EC00F052EC00F095
:1009900052EC00F05FEC00F05FEC00F05FEC00F078
:1009A0005FEC00F05FEC00F05FEC00F052EC00F068
:1009B00052EC00F052EC00F052EC00F05FEC00F072
:1009C00052EC00F05FEC00F05FEC00F052EC00F055
:1009D00052EC00F052EC00F052EC00F052EC00F05F
:1009E00052EC00F05FEC00F05FEC00F052EC00F035
:1009F00038EC00F052EC00F052EC00F052EC00F059
:100A000052EC00F052EC00F052EC00F038EC00F048
:100A1000120038EC00F045EC00F045EC00F045EC3D
:100A200000F045EC00F045EC00F045EC00F038EC4F
:100A300000F045EC00F045EC00F045EC00F045EC32
:100A400000F045EC00F045EC00F045EC00F045EC22
:100A500000F045EC00F05FEC00F05FEC00F05FECC4
:100A600000F05FEC00F05FEC00F05FEC00F045ECB4
:100A700000F045EC00F045EC00F05FEC00F05FECBE
:100A800000F05FEC00F05FEC00F045EC00F045ECAE
:100A900000F045EC00F045EC00F05FEC00F05FEC9E
:100AA00000F05FEC00F05FEC00F045EC00F045EC8E
:100AB00000F045EC00F045EC00F045EC00F05FEC98
:100AC00000F05FEC00F045EC00F045EC00F045EC88
:100AD00000F045EC00F045EC00F045EC00F05FEC78
:100AE00000F05FEC00F045EC00F045EC00F045EC68
:100AF00000F038EC00F045EC00F045EC00F045EC7F
:100B000000F045EC00F045EC00F045EC00F038EC6E
:100B100000F0120038EC00F052EC00F052EC00F063
:100B200052EC00F052EC00F052EC00F052EC00F00D
:100B300038EC00F052EC00F052EC00F052EC00F017
:100B400052EC00F052EC00F052EC00F052EC00F0ED
:100B500052EC00F052EC00F05FEC00F05FEC00F0C3
:100B60005FEC00F05FEC00F05FEC00F05FEC00F099
:100B700052EC00F05FEC00F05FEC00F05FEC00F096
:100B80005FEC00F05FEC00F05FEC00F05FEC00F079
:100B900052EC00F05FEC00F05FEC00F052EC00F083
:100BA0005FEC00F05FEC00F052EC00F052EC00F073
:100BB00052EC00F05FEC00F05FEC00F052EC00F063
:100BC0005FEC00F05FEC00F052EC00F052EC00F053
:100BD00052EC00F052EC00F052EC00F052EC00F05D
:100BE0005FEC00F05FEC00F052EC00F052EC00F033
:100BF00052EC00F038EC00F052EC00F052EC00F057
:100C000052EC00F052EC00F052EC00F052EC00F02C
:100C100038EC00F0120007EC04F0ADEC00F0ADECA5
:100C200000F0ADEC00F0ADEC00F0ADEC00F0ADECA0
:100C300000F0ADEC00F0ADEC00F0ADEC00F0ADEC90
:100C400000F0ADEC00F0ADEC00F0ADEC00F0ADEC80
:100C500000F0ADEC00F0ADEC00F0ADEC00F0ADEC70
:100C600000F0ADEC00F0ADEC00F0ADEC00F0ADEC60
:100C700000F0ADEC00F0ADEC00F0ADEC00F0ADEC50
:100C800000F0ADEC00F08AEC05F0ADEC00F0ADEC5E
:100C900000F0ADEC00F0ADEC00F0ADEC00F0ADEC30
:100CA00000F0ADEC00F0ADEC00F0ADEC00F0ADEC20
:100CB00000F0ADEC00F0ADEC00F0ADEC00F0ADEC10
:100CC00000F0ADEC00F0ADEC00F0ADEC00F0ADEC00
:100CD00000F0ADEC00F0ADEC00F0ADEC00F0ADECF0
:100CE00000F0ADEC00F0ADEC00F0ADEC00F0ADECE0
:100CF00000F009EC05F0ADEC00F0ADEC00F0ADEC6F
:100D000000F0ADEC00F0ADEC00F0ADEC00F0ADECBF
:100D100000F0ADEC00F0ADEC00F0ADEC00F0ADECAF
:100D200000F0ADEC00F0ADEC00F0ADEC00F0ADEC9F
:100D300000F0ADEC00F0ADEC00F0ADEC00F0ADEC8F
:100D400000F0ADEC00F0ADEC00F0ADEC00F0ADEC7F
:100D500000F0ADEC00F0ADEC00F0ADEC00F0ADEC6F
:100D600000F088EC04F0ADEC00F0ADEC00F0ADEC80
:100D700000F0ADEC00F0ADEC00F0ADEC00F0ADEC4F
:100D800000F0ADEC00F0ADEC00F0ADEC00F0ADEC3F
:100D900000F0ADEC00F0ADEC00F0ADEC00F0ADEC2F
:100DA00000F0ADEC00F0ADEC00F0ADEC00F0ADEC1F
:100DB00000F0ADEC00F0ADEC00F0ADEC00F0ADEC0F
:100DC00000F0ADEC00F0ADEC00F0ADEC00F0120086
:100DD0002BEC00F02BEC00F02BEC00F02BEC00F0F7
:100DE0002BEC00F02BEC00F02BEC00F02BEC00F0E7
:100DF0002BEC00F06CEC00F06CEC00F06CEC00F014
:100E00006CEC00F06CEC00F06CEC00F02BEC00F003
:100E10002BEC00F06CEC00F045EC00F045EC00F041
:100E200045EC00F045EC00F06CEC00F02BEC00F031
:100E30002BEC00F06CEC00F045EC00F06CEC00F0FA
:100E40006CEC00F045EC00F06CEC00F02BEC00F0EA
:100E50002BEC00F06CEC00F045EC00F06CEC00F0DA
:100E60006CEC00F045EC00F06CEC00F02BEC00F0CA
:100E70002BEC00F06CEC00F045EC00F045EC00F0E1
:100E800045EC00F045EC00F06CEC00F02BEC00F0D1
:100E90002BEC00F06CEC00F06CEC00F06CEC00F073
:100EA0006CEC00F06CEC00F06CEC00F02BEC00F063
:100EB0002BEC00F02BEC00F02BEC00F02BEC00F016
:100EC0002BEC00F02BEC00F02BEC00F02BEC00F006
:100ED000ADEC00F0ADEC00F0ADEC00F0ADEC00F0EE
:100EE000ADEC00F0ADEC00F0ADEC00F0ADEC00F0DE
:100EF0006CEC00F06CEC00F06CEC00F06CEC00F0D2
:100F00006CEC00F06CEC00F06CEC00F06CEC00F0C1
:100F10006CEC00F045EC00F045EC00F045EC00F026
:100F200045EC00F045EC00F045EC00F06CEC00F016
:100F30006CEC00F045EC00F06CEC00F06CEC00F0B8
:100F40006CEC00F06CEC00F045EC00F06CEC00F0A8
:100F50006CEC00F045EC00F06CEC00F02BEC00F0D9
:100F60002BEC00F06CEC00F045EC00F06CEC00F0C9
:100F70006CEC00F045EC00F06CEC00F02BEC00F0B9
:100F80002BEC00F06CEC00F045EC00F06CEC00F0A9
:100F90006CEC00F045EC00F06CEC00F06CEC00F058
:100FA0006CEC00F06CEC00F045EC00F06CEC00F048
:100FB0006CEC00F045EC00F045EC00F045EC00F086
:100FC00045EC00F045EC00F045EC00F06CEC00F076
:100FD0006CEC00F06CEC00F06CEC00F06CEC00F0F1
:100FE0006CEC00F06CEC00F06CEC00F06CEC00F0E1
:100FF000ADEC00F0ADEC00F0ADEC00F0ADEC00F0CD
:10100000ADEC00F0ADEC00F0ADEC00F0ADEC00F0BC
:1010100045EC00F045EC00F045EC00F045EC00F04C
:1010200045EC00F045EC00F045EC00F045EC00F03C
:1010300045EC00F06CEC00F06CEC00F06CEC00F0B7
:101040006CEC00F06CEC00F06CEC00F045EC00F0A7
:1010500045EC00F06CEC00F02BEC00F02BEC00F019
:101060002BEC00F02BEC00F06CEC00F045EC00F009
:1010700045EC00F06CEC00F02BEC00F06CEC00F0B8
:101080006CEC00F02BEC00F06CEC00F045EC00F0A8
:1010900045EC00F06CEC00F02BEC00F06CEC00F098
:1010A0006CEC00F02BEC00F06CEC00F045EC00F088
:1010B00045EC00F06CEC00F02BEC00F02BEC00F0B9
:1010C0002BEC00F02BEC00F06CEC00F045EC00F0A9
:1010D00045EC00F06CEC00F06CEC00F06CEC00F017
:1010E0006CEC00F06CEC00F06CEC00F045EC00F007
:1010F00045EC00F045EC00F045EC00F045EC00F06C
:1011000045EC00F045EC00F045EC00F045EC00F05B
:10111000ADEC00F0ADEC00F0ADEC00F0ADEC00F0AB
:10112000ADEC00F0ADEC00F0ADEC00F0ADEC00F09B
:101130006CEC00F06CEC00F06CEC00F06CEC00F08F
:101140006CEC00F06CEC00F06CEC00F06CEC00F07F
:101150006CEC00F02BEC00F02BEC00F02BEC00F032
:101160002BEC00F02BEC00F02BEC00F06CEC00F022
:101170006CEC00F02BEC00F06CEC00F06CEC00F090
:101180006CEC00F06CEC00F02BEC00F06CEC00F080
:101190006CEC00F02BEC00F06CEC00F045EC00F097
:1011A00045EC00F06CEC00F02BEC00F06CEC00F087
:1011B0006CEC00F02BEC00F06CEC00F045EC00F077
:1011C00045EC00F06CEC00F02BEC00F06CEC00F067
:1011D0006CEC00F02BEC00F06CEC00F06CEC00F030
:1011E0006CEC00F06CEC00F02BEC00F06CEC00F020
:1011F0006CEC00F02BEC00F02BEC00F02BEC00F092
:101200002BEC00F02BEC00F02BEC00F06CEC00F081
:101210006CEC00F06CEC00F06CEC00F06CEC00F0AE
:101220006CEC00F06CEC00F06CEC00F06CEC00F09E
:10123000ADEC00F0ADEC00F0ADEC00F0ADEC00F08A
:10124000ADEC00F0ADEC00F0ADEC00F0ADEC00F07A
:10125000120038EC00F038EC00F052EC00F052ECE8
:1012600000F052EC00F052EC00F038EC00F038ECFA
:1012700000F038EC00F052EC00F038EC00F038EC04
:1012800000F038EC00F038EC00F052EC00F038ECF4
:1012900000F052EC00F038EC00F038EC00F052ECCA
:1012A00000F038EC00F052EC00F038EC00F052ECBA
:1012B00000F052EC00F038EC00F052EC00F038ECAA
:1012C00000F038EC00F038EC00F038EC00F052ECB4
:1012D00000F052EC00F038EC00F052EC00F038EC8A
:1012E00000F038EC00F038EC00F038EC00F052EC94
:1012F00000F052EC00F038EC00F038EC00F052EC6A
:1013000000F038EC00F052EC00F038EC00F052EC59
:1013100000F038EC00F052EC00F038EC00F038EC63
:1013200000F038EC00F038EC00F052EC00F038EC53
:1013300000F038EC00F038EC00F052EC00F052EC29
:1013400000F052EC00F052EC00F038EC00F038EC19
:1013500000F0ADEC00F0ADEC00F0ADEC00F0ADEC69
:1013600000F0ADEC00F0ADEC00F0ADEC00F038ECCE
:1013700000F038EC00F045EC00F045EC00F045ECF6
:1013800000F045EC00F038EC00F038EC00F038EC00
:1013900000F045EC00F038EC00F038EC00F038ECF0
:1013A00000F038EC00F045EC00F038EC00F045ECD3
:1013B00000F038EC00F045EC00F038EC00F038ECD0
:1013C00000F045EC00F038EC00F045EC00F045ECA6
:1013D00000F038EC00F038EC00F045EC00F038ECB0
:1013E00000F038EC00F038EC00F045EC00F045EC93
:1013F00000F038EC00F038EC00F045EC00F038EC90
:1014000000F038EC00F038EC00F045EC00F045EC72
:1014100000F038EC00F045EC00F038EC00F038EC6F
:1014200000F045EC00F038EC00F045EC00F038EC52
:1014300000F045EC00F038EC00F038EC00F038EC4F
:1014400000F038EC00F045EC00F038EC00F038EC3F
:1014500000F038EC00F045EC00F045EC00F045EC15
:1014600000F045EC00F038EC00F038EC00F0ADECAA
:1014700000F0ADEC00F0ADEC00F0ADEC00F0ADEC48
:0C14800000F0ADEC00F0ADEC00F013004B
:02148C0000005E
:02148E000F014C
:10149000840E606F0F01000E596F0F013F0E576FE2
:1014A0000F01000E5A6F0F015C6B0F015E6B0F0195
:1014B000130E586F0F01C20E316F000ED86FCF0E92
:0E14C000896EFF0E886E16EC00F063EF0AF0E6
:020000040030CA
:010000008C73
:01000100FE00
:01000200FFFE
:01000300FFFD
:010004009F5C
:01000500FFFB
:01000600FFFA
:01000700DF19
:01000800FFF8
:01000A00FFF6
:01000B00FFF5
:00000001FF
